{
    "_format": "hh-sol-artifact-1",
    "contractName": "Transactions",
    "sourceName": "contracts/Transactions.sol",
    "abi": [
        {
            "anonymous": false,
            "inputs": [
                {
                    "indexed": true,
                    "internalType": "address",
                    "name": "from",
                    "type": "address"
                },
                {
                    "indexed": false,
                    "internalType": "address",
                    "name": "receiver",
                    "type": "address"
                },
                {
                    "indexed": false,
                    "internalType": "uint256",
                    "name": "amount",
                    "type": "uint256"
                },
                {
                    "indexed": false,
                    "internalType": "string",
                    "name": "message",
                    "type": "string"
                },
                {
                    "indexed": false,
                    "internalType": "uint256",
                    "name": "timestamp",
                    "type": "uint256"
                },
                {
                    "indexed": false,
                    "internalType": "string",
                    "name": "keyword",
                    "type": "string"
                }
            ],
            "name": "Transfer",
            "type": "event"
        },
        {
            "inputs": [
                {
                    "internalType": "address payable",
                    "name": "receiver",
                    "type": "address"
                },
                {
                    "internalType": "uint256",
                    "name": "amount",
                    "type": "uint256"
                },
                {
                    "internalType": "string",
                    "name": "message",
                    "type": "string"
                },
                {
                    "internalType": "string",
                    "name": "keyword",
                    "type": "string"
                }
            ],
            "name": "addToBlockchain",
            "outputs": [],
            "stateMutability": "nonpayable",
            "type": "function"
        },
        {
            "inputs": [],
            "name": "getAllTransaction",
            "outputs": [
                {
                    "components": [
                        {
                            "internalType": "address",
                            "name": "sender",
                            "type": "address"
                        },
                        {
                            "internalType": "address",
                            "name": "receiver",
                            "type": "address"
                        },
                        {
                            "internalType": "uint256",
                            "name": "amount",
                            "type": "uint256"
                        },
                        {
                            "internalType": "string",
                            "name": "message",
                            "type": "string"
                        },
                        {
                            "internalType": "uint256",
                            "name": "timestamp",
                            "type": "uint256"
                        },
                        {
                            "internalType": "string",
                            "name": "keyword",
                            "type": "string"
                        }
                    ],
                    "internalType": "struct Transactions.TransferStruc[]",
                    "name": "",
                    "type": "tuple[]"
                }
            ],
            "stateMutability": "view",
            "type": "function"
        },
        {
            "inputs": [],
            "name": "getTransactionCount",
            "outputs": [
                {
                    "internalType": "uint256",
                    "name": "",
                    "type": "uint256"
                }
            ],
            "stateMutability": "view",
            "type": "function"
        }
    ],
    "bytecode": "0x608060405234801561001057600080fd5b50610c2b806100206000396000f3fe608060405234801561001057600080fd5b50600436106100415760003560e01c80632e7700f014610046578063add6415d14610064578063cc2d7ead14610082575b600080fd5b61004e61009e565b60405161005b91906108d3565b60405180910390f35b61006c6100a7565b60405161007991906108b1565b60405180910390f35b61009c600480360381019061009791906105f6565b6102ea565b005b60008054905090565b60606001805480602002602001604051908101604052809291908181526020016000905b828210156102e157838290600052602060002090600602016040518060c00160405290816000820160009054906101000a900473ffffffffffffffffffffffffffffffffffffffff1673ffffffffffffffffffffffffffffffffffffffff1673ffffffffffffffffffffffffffffffffffffffff1681526020016001820160009054906101000a900473ffffffffffffffffffffffffffffffffffffffff1673ffffffffffffffffffffffffffffffffffffffff1673ffffffffffffffffffffffffffffffffffffffff168152602001600282015481526020016003820180546101b490610ac6565b80601f01602080910402602001604051908101604052809291908181526020018280546101e090610ac6565b801561022d5780601f106102025761010080835404028352916020019161022d565b820191906000526020600020905b81548152906001019060200180831161021057829003601f168201915b505050505081526020016004820154815260200160058201805461025090610ac6565b80601f016020809104026020016040519081016040528092919081815260200182805461027c90610ac6565b80156102c95780601f1061029e576101008083540402835291602001916102c9565b820191906000526020600020905b8154815290600101906020018083116102ac57829003601f168201915b505050505081525050815260200190600101906100cb565b50505050905090565b60016000808282546102fc91906109aa565b9250508190555060016040518060c001604052803373ffffffffffffffffffffffffffffffffffffffff1681526020018673ffffffffffffffffffffffffffffffffffffffff16815260200185815260200184815260200142815260200183815250908060018154018082558091505060019003906000526020600020906006020160009091909190915060008201518160000160006101000a81548173ffffffffffffffffffffffffffffffffffffffff021916908373ffffffffffffffffffffffffffffffffffffffff16021790555060208201518160010160006101000a81548173ffffffffffffffffffffffffffffffffffffffff021916908373ffffffffffffffffffffffffffffffffffffffff16021790555060408201518160020155606082015181600301908051906020019061043b9291906104c1565b506080820151816004015560a08201518160050190805190602001906104629291906104c1565b5050503373ffffffffffffffffffffffffffffffffffffffff167f416cfa4330a4565f45c2fd2dd4826a83a37443aba2ce6f79477c7355afac35fa85858542866040516104b3959493929190610850565b60405180910390a250505050565b8280546104cd90610ac6565b90600052602060002090601f0160209004810192826104ef5760008555610536565b82601f1061050857805160ff1916838001178555610536565b82800160010185558215610536579182015b8281111561053557825182559160200191906001019061051a565b5b5090506105439190610547565b5090565b5b80821115610560576000816000905550600101610548565b5090565b600061057761057284610913565b6108ee565b90508281526020810184848401111561058f57600080fd5b61059a848285610a84565b509392505050565b6000813590506105b181610bc7565b92915050565b600082601f8301126105c857600080fd5b81356105d8848260208601610564565b91505092915050565b6000813590506105f081610bde565b92915050565b6000806000806080858703121561060c57600080fd5b600061061a878288016105a2565b945050602061062b878288016105e1565b935050604085013567ffffffffffffffff81111561064857600080fd5b610654878288016105b7565b925050606085013567ffffffffffffffff81111561067157600080fd5b61067d878288016105b7565b91505092959194509250565b600061069583836107a2565b905092915050565b6106a681610a4e565b82525050565b6106b581610a00565b82525050565b60006106c682610954565b6106d08185610977565b9350836020820285016106e285610944565b8060005b8581101561071e57848403895281516106ff8582610689565b945061070a8361096a565b925060208a019950506001810190506106e6565b50829750879550505050505092915050565b600061073b8261095f565b6107458185610988565b9350610755818560208601610a93565b61075e81610bb6565b840191505092915050565b60006107748261095f565b61077e8185610999565b935061078e818560208601610a93565b61079781610bb6565b840191505092915050565b600060c0830160008301516107ba60008601826106ac565b5060208301516107cd60208601826106ac565b5060408301516107e06040860182610832565b50606083015184820360608601526107f88282610730565b915050608083015161080d6080860182610832565b5060a083015184820360a08601526108258282610730565b9150508091505092915050565b61083b81610a44565b82525050565b61084a81610a44565b82525050565b600060a082019050610865600083018861069d565b6108726020830187610841565b81810360408301526108848186610769565b90506108936060830185610841565b81810360808301526108a58184610769565b90509695505050505050565b600060208201905081810360008301526108cb81846106bb565b905092915050565b60006020820190506108e86000830184610841565b92915050565b60006108f8610909565b90506109048282610af8565b919050565b6000604051905090565b600067ffffffffffffffff82111561092e5761092d610b87565b5b61093782610bb6565b9050602081019050919050565b6000819050602082019050919050565b600081519050919050565b600081519050919050565b6000602082019050919050565b600082825260208201905092915050565b600082825260208201905092915050565b600082825260208201905092915050565b60006109b582610a44565b91506109c083610a44565b9250827fffffffffffffffffffffffffffffffffffffffffffffffffffffffffffffffff038211156109f5576109f4610b29565b5b828201905092915050565b6000610a0b82610a24565b9050919050565b6000610a1d82610a24565b9050919050565b600073ffffffffffffffffffffffffffffffffffffffff82169050919050565b6000819050919050565b6000610a5982610a60565b9050919050565b6000610a6b82610a72565b9050919050565b6000610a7d82610a24565b9050919050565b82818337600083830152505050565b60005b83811015610ab1578082015181840152602081019050610a96565b83811115610ac0576000848401525b50505050565b60006002820490506001821680610ade57607f821691505b60208210811415610af257610af1610b58565b5b50919050565b610b0182610bb6565b810181811067ffffffffffffffff82111715610b2057610b1f610b87565b5b80604052505050565b7f4e487b7100000000000000000000000000000000000000000000000000000000600052601160045260246000fd5b7f4e487b7100000000000000000000000000000000000000000000000000000000600052602260045260246000fd5b7f4e487b7100000000000000000000000000000000000000000000000000000000600052604160045260246000fd5b6000601f19601f8301169050919050565b610bd081610a12565b8114610bdb57600080fd5b50565b610be781610a44565b8114610bf257600080fd5b5056fea2646970667358221220983e72ff320a8af1d6c9f97e010ca25f03fb6704cf05f3cb8254e8040f73d62a64736f6c63430008040033",
    "linkReferences": {},
    "deployedLinkReferences": {}
}